:1000000000400020610F00008D0F00008D0F0000E8
:100010008D0F00008D0F00008D0F00008D0F000070
:100020008D0F00008D0F00008D0F00008D0F000060
:100030008D0F00008D0F00008D0F00008D0F000050
:100040008D0F00008D0F0000E90500008D0F0000EE
:100050008D0F00008D0F00008D0F00008D0F000030
:100060008D0F00008D0F00008D0F00008D0F000020
:100070008D0F00008D0F00008D0F00008D0F000010
:100080008D0F00008D0F00008D0F00008D0F000000
:100090008D0F00008D0F00008D0F00008D0F0000F0
:1000A000A90500008D0F00008D0F00008D0F0000CE
:1000B0008D0F00008D0F00008D0F000010B5054C56
:1000C000237833B9044B13B10448AFF30080012304
:1000D000237010BD2C02002000000000A4110000BD
:1000E00008B5064B1BB106480649AFF30080064829
:1000F000036813B1054B03B1984708BD0000000029
:10010000A41100003002002028020020000000009E
:10011000154B002B08BF134B9D46A3F5803A0021D9
:100120008B460F461348144A121A01F01BF80F4B66
:10013000002B00D098470E4B002B00D09847002092
:10014000002104000D000D48002802D00C48AFF338
:10015000008000F0E1FF2000290000F06DFA00F0BF
:10016000C7FF00BF000008000040002000000000A2
:10017000000000002C0200205402002000000000BB
:100180000000000080B483B000AF0346FB71084B51
:1001900097F907205209F97901F01F01012000FAAF
:1001A00001F143F822100C37BD465DF8047B70471F
:1001B00000E100E080B400AF054B054A126922F06F
:1001C00004021A6130BFBD465DF8047B704700BF72
:1001D00000ED00E080B483B000AF03463960FB71EE
:1001E000FB79002B0DD0FB79012B0AD0FB79022B78
:1001F00007D0FB79032B04D0FB79042B01D0FB79CA
:10020000052B0948FA793B68012101FA03F31946E5
:100210001346DB0013449B000344183319600C376A
:10022000BD465DF8047B70470060004090B484B028
:1002300000AF0346B9607A60FB73FB7B002B0DD0E7
:10024000FB7B012B0AD0FB7B022B07D0FB7B032B14
:1002500004D0FB7B042B01D0FB7B052B0E48FA7BE3
:100260000D4CF97B0B46DB000B449B002344083309
:1002700059687B68DB431940BC687B68234019439D
:100280001346DB0013449B000344083359601037C6
:10029000BD4690BC704700BF0060004080B483B092
:1002A00000AF786039607B683A689A610C37BD4668
:1002B0005DF8047B704700BF80B483B000AF786006
:1002C00039607B68DA683B681A437B68DA600C3710
:1002D000BD465DF8047B704780B483B000AF7860A2
:1002E00039607B683A681A620C37BD465DF8047B5A
:1002F000704700BF80B483B000AF786039607B681E
:100300003A68DA610C37BD465DF8047B704700BF80
:1003100080B584B000AF514B1B68FB60FB681B0EBF
:10032000002B15D14E4BBB60BB681B6823F07002DD
:10033000BB681A604B4BBB60BB681B6823F0604214
:10034000BB681A60BB681B6863F06062BB681A60B8
:10035000FB681B0E032B20D8424BBB60BB681B689D
:1003600023F4FC52BB681A603F4BBB60BB680022A1
:100370001A603E4BBB60BB6800221A603C4BBB60FE
:10038000BB6800221A603B4BBB60BB6800221A604E
:10039000394BBB60BB6800221A603B46184600F030
:1003A00037FD7B78012B15D13B78002B07D12E4BE5
:1003B000BB60BB681B6843F00202BB681A603B78F5
:1003C000012B07D8294BBB60BB681B6843F00102B7
:1003D000BB681A60294B1B68FB60FA68284B9A427D
:1003E00039D8224BBB60BB681B6843F49042BB68A2
:1003F0001A60244B1B6803F4FE431B0A1B067B6038
:10040000204B1B6803F07F031B047A6813437B6057
:100410001C4B1B6803F4FE437A6813437B60194B43
:100420001B6803F07F037A6813437B60164BBB6045
:10043000BB687A681A60154BBB60154B1B687B6004
:10044000BB687A681A60094BBB60BB681B6823F401
:100450009042BB681A601037BD4680BDFC81E00F3A
:100460000CA00C4020600C4040800C4044800C40AC
:1004700058800C4060800C4078800C40F081E00F88
:10048000FFB98A4CB481E00F342000402C4000407A
:10049000C881E00F80B483B000AF7860034B7A6806
:1004A0009A610C37BD465DF8047B70470000084038
:1004B00080B483B000AF7860054B054AD1697A6893
:1004C0000A43DA610C37BD465DF8047B704700BF14
:1004D0000000084080B400AF034B1B691846BD46BE
:1004E0005DF8047B704700BF0000084080B485B011
:1004F00000AF7860134B1B781A46134B53F8323019
:10050000BB60104B1B78104ADB0013445B68FB6038
:100510000C4B1B78362B04D80A4B1B780133DBB20B
:1005200000E00023074A13707B6807F1080292E895
:10053000030083E8030078681437BD465DF8047B48
:10054000704700BF480200200000002080B400AFC8
:10055000074B1B781A46074B53F83230322B01D128
:10056000012300E000231846BD465DF8047B704778
:10057000480200200000002080B582B000AF3B465A
:100580001846FFF7B3FF3B680020194600F0CCFB8C
:1005900000F034FC7B6803481946FFF79DFE0837DE
:1005A000BD4680BD0000014080B582B000AFFFF7BE
:1005B00091FF78607868FFF76DFF7B6803F00203B6
:1005C000002B0ED0FFF7C2FF0346002B04D1002002
:1005D0000021FFF7FFFD04E0002000210122FFF7CA
:1005E00025FE0837BD4680BD80B500AF0348012118
:1005F000FFF754FEFFF7C0FF80BD00BF00000140C1
:1006000080B582B000AF0020322100F08DFB00F0F9
:10061000F5FB0123BB7100237B7101233B713B1D63
:10062000184600F0C3FB0220FFF742FF1820FFF737
:10063000A9FD0837BD4680BD80B584B000AFFFF787
:1006400067FE2548012100F0F3F82448012100F05D
:10065000EFF8234A3B1D1068516803C31189927A51
:1006600019809A701F480121FFF726FE0220FFF72C
:1006700089FD1C484FF40041FFF73CFE3B1D194823
:10068000194600F0FFFB02200D210422002300F098
:1006900093FA002000210422002300F08DFA0220AA
:1006A00001214FF40052FFF7C1FD0020012101227A
:1006B00000F0BCF90C48022100F018F90B480121A8
:1006C00000F0B6F80A48012100F0B2F8FFF798FFF1
:1006D000FFF770FDFCE700BF00C204000042040009
:1006E0009011000000000140020018006006100098
:1006F0000023020080B487B000AFF860B9607A6070
:10070000FB6803F10473DA00BB6813449B007B6150
:100710007B697A681A601C37BD465DF8047B7047B8
:1007200080B485B000AF786039607B6803F10473F2
:10073000DA003B6813449B00FB60FB681B681846AB
:100740001437BD465DF8047B704700BF80B485B0A8
:1007500000AF7860214BDB6B002B0CBF0023012323
:10076000BB721E4B41F67132DA631C4B5B6803F0BF
:100770000703FB60FB68012B02D80023FB7202E039
:100780000123FB7200BF7A68154B9A420BD87A6836
:10079000144B9A4207D9FB7A002B01D0032300E0C7
:1007A0000123FB6006E0FB7A002B01D0022300E06E
:1007B0000023FB60094B094A526822F00701FA68DE
:1007C0000A435A60BB7A002B02D0044B0022DA6342
:1007D0001437BD465DF8047B704700BF00000C4035
:1007E0000048E8010024F40080B500AF00F0F8FBF9
:1007F00003461846FFF7AAFF80BD00BF80B483B050
:1008000000AF7860094B5B6D03F00103002B00D053
:1008100006E000BF054B1A6D7B681340002BF9D131
:100820000C37BD465DF8047B704700BF00800C406C
:1008300080B586B000AF78600B46FB7000233B614B
:100840007B681B0A03F00F03013B092B3ED801A272
:1008500052F823F083080000890800007D0800009A
:10086000CD080000CD0800008F08000099080000A6
:10087000CD080000CD080000A3080000154B7B61E7
:1008800012E0154B7B610FE0144B7B610CE0144BC5
:100890007B6101233B6107E0124B7B6110233B61CD
:1008A00002E0114B7B6100BF7B681B0B03F01F0351
:1008B000FB603B69002B02D03869FFF79FFFFB7894
:1008C0007869F9681A46FFF715FF00E000BF18378E
:1008D000BD4680BD40800C4008800C4044800C40E8
:1008E00058800C4060800C4078800C4080B588B007
:1008F00000AF78600B46FB700323FB610323FB769C
:100900007B6803F00F033B613B69012B04D0012B93
:100910007FD3032B7DD837E0FB78023B032B7AD8BB
:1009200001A252F823F000BF39090000430900007A
:100930004D090000570900000423FB610023FB76EA
:100940000EE00323FB610123FB7609E00223FB6138
:100950000223FB7604E00123FB610323FB7600BF47
:10096000FB7E18460121012200F060F8FFF73CFFF2
:100970002C4BFA695A6200F0B9F800F017FBF860E6
:10098000F868FFF7E3FE49E0FB78013B052B44D80C
:1009900001A252F823F000BFB1090000B70900001E
:1009A000C70900001B0A00001B0A0000D70900004D
:1009B00000237B6117E000200121012200F036F8BE
:1009C00002237B610FE001200121012200F02EF8BB
:1009D00001237B6107E0144802210122FFF78AFE10
:1009E00003237B6100BF3B69022B08D10D4B0D4AED
:1009F000926A22F003017A690A439A620EE0094B77
:100A0000084A926A22F00C017A6992000A439A62BB
:100A100004E000BF02E000BF00E000BF2037BD4699
:100A200080BD00BF00800C4040800C4080B586B087
:100A300000AF13460246FA710A46BA717B71FB7920
:100A4000042B4AD801A252F823F000BF990A0000F3
:100A50008B0A00006F0A0000610A00007D0A000096
:100A600001233B610223FB6001237B611DE0042322
:100A70003B610823FB6003237B6116E010233B618D
:100A80002023FB6005237B610FE040233B61802333
:100A9000FB6007237B6108E04FF480733B614FF4F8
:100AA0000073FB6009237B6100BFBB79002B0ED074
:100AB0000C4B3A691A627B79002B0BD000BF0A48B5
:100AC0007969FFF72DFE0346002BF8D002E0054BB5
:100AD000FA681A6200F00AF800E000BF1837BD4655
:100AE00080BD00BF00800C402C800C4080B400AF63
:100AF000034BDA6A034B1A60BD465DF8047B70470E
:100B000000800C404C02002080B483B000AF03464C
:100B10003960FB71FB79002B0DD0FB79012B0AD0DA
:100B2000FB79022B07D0FB79032B04D0FB79042B34
:100B300001D0FB79052B0948FA793B68012101FABC
:100B400003F319461346DB0013449B0003441033A0
:100B500059600C37BD465DF8047B7047006000406B
:100B600080B483B000AF03463960FB71FB79002B82
:100B70000DD0FB79012B0AD0FB79022B07D0FB7932
:100B8000032B04D0FB79042B01D0FB79052B0948FA
:100B9000FA793B68012101FA03F319461346DB0099
:100BA00013449B000344103319600C37BD465DF8B5
:100BB000047B70470060004090B585B000AFB9601D
:100BC0007B600346FB731346BB73FB7B002B0DD08E
:100BD000FB7B012B0AD0FB7B022B07D0FB7B032B7B
:100BE00004D0FB7B042B01D0FB7B052BBB7B002BB4
:100BF0000DD07B68002B05D0FB7B1846B968FFF74A
:100C0000AFFF04E0FB7B1846B968FFF77DFFBB68C8
:100C1000072B1DD82B48FA7B2A4CF97B0B46DB00AF
:100C20000B449B0023445968BB689B000F2404FAC3
:100C300003F3DB431940BC7BBB689B0004FA03F35E
:100C400019431346DB0013449B000344596024E01E
:100C50001C48FA7B1B4CF97B0B46DB000B449B00CA
:100C6000234408331968BB6803F18043083B9B00A9
:100C70000F2404FA03F3DB431940BC7BBB6803F188
:100C80008043083B9B0004FA03F319431346DB003F
:100C900013449B00034408331960BB7B002B0DD128
:100CA0007B68002B05D0FB7B1846B968FFF758FF1F
:100CB00004E0FB7B1846B968FFF726FF1437BD46F2
:100CC00090BD00BF0060004080B487B000AFF86006
:100CD000B9607A60FB6803F10473DA00BB681344FF
:100CE0009B007B617B697A681A601C37BD465DF8A2
:100CF000047B704780B483B000AF7860094B1B6AF7
:100D000003F00103002B00D006E000BF054B5A6A38
:100D10007B681340002BF9D10C37BD465DF8047B8E
:100D2000704700BF0000084080B584B000AF786015
:100D300039607B68012B05D83B6803F07F43002BAB
:100D400000D100BF7B68002B02D0012B05D00FE043
:100D5000094BFB600223BB6004E0084BFB600423EB
:100D6000BB6000BFB868FFF7C5FFFB683A681A6050
:100D70001037BD4680BD00BF080008400C00084089
:100D800080B582B000AF0346FB710120FFF7B2FFD0
:100D9000FB79054800211A46FFF796FF0120FFF76F
:100DA000A9FF0837BD4680BD0000084080B584B06B
:100DB00000AF78607B681B78002B02D00123FB60BA
:100DC00001E00023FB607B685B78002B03D0FB68AD
:100DD00043F00203FB607B689B78002B03D0FB6829
:100DE00043F00403FB600120FFF784FF024BFA6825
:100DF0001A601037BD4680BD0000084080B500AFC6
:100E00000020FFF7BDFF0120FFF7BAFF80BD00BF44
:100E100080B485B000AF7860194B5B69DBB203F03A
:100E20000F03DBB29B00FB73154B1B6903F0C00380
:100E30009B09DAB2FB7B1343FB737B68FA7B9A70E6
:100E40000F4B1B69DBB203F03F03DAB27B685A70C9
:100E50000B4B9B69DBB223F00F03FB73084BDB6981
:100E600003F0F0031B09DAB2FB7B1343FB737B68CF
:100E7000FA7B1A701437BD465DF8047B704700BFDB
:100E8000D0FF0FE080B483B000AF786039607A683B
:100E9000304B9A4207D07A682F4B9A4203D07A6837
:100EA0002E4B9A4200D100BF3B681B7883F00103B0
:100EB000DBB2002B02D07B6802225A607B680022E2
:100EC0005A623B689B781A063B68DB781B041A431E
:100ED0003B681B799B021A433B685B791B021A43F0
:100EE0003B689B791A433B685B78002B01D0402319
:100EF00000E000231A433B68DB79002B01D08023FC
:100F000000E000231A433B681B7A002B01D020230A
:100F100000E000231A433B685B7A002B01D01023CA
:100F200000E000231A433B689B7A002B01D0082382
:100F300000E000231A437B681A603B681B78002B93
:100F400002D07B6801225A600C37BD465DF8047BF5
:100F5000704700BF0000014000040140000801404C
:100F6000064880470649074A074B9A42BEBF51F8D8
:100F7000040B42F8040BF8E7FFF7CAF8E51000008D
:100F8000B0110000000000202C020020FEE700BF8E
:100F900080B400AF044BDB6C1B0EDBB21846BD46C1
:100FA0005DF8047B704700BFB081E00F80B582B070
:100FB00000AF00F01FF87860074B5B6803F00F0389
:100FC0007A6822FA03F37B60044B7A681A607B68C4
:100FD00018460837BD4680BD00800C4050020020F6
:100FE00080B400AF024B1846BD465DF8047B7047E5
:100FF0000048E80180B582B000AF2F4BDB6A03F4F4
:101000007053B3F5805F0AD0B3F5005F03D0B3F53A
:10101000006F08D00BE0294B1B687B6047E04FF462
:1010200000437B6043E0264B1B687B603FE0224B24
:10103000DB6803F4E063B3F5007F1BD0B3F5007FFA
:1010400005D8002B24D0B3F5807F16D02BE0B3F564
:10105000806F09D0B3F5A06F03D0B3F5407F06D001
:1010600021E0184B7B6021E0174B7B601EE0174BA3
:101070007B601BE0164B7B6018E0FFF789FF03469F
:10108000122B02D9134B7B6010E0134B7B600DE0F9
:10109000FFF77EFF0346122B02D9104B7B6005E061
:1010A0000F4B7B6002E000237B6000BF00BF7B68CA
:1010B00018460837BD4680BD00800C40BC010020AA
:1010C000B8010020003FAB01406F4001809FD50078
:1010D000C0D8A70040B56400C0CF6A00804F12009E
:1010E00040420F0080B400AFBD465DF8047B7047FE
:1010F00008B5074B044613B10021AFF30080054B40
:101100001868836A03B19847204600F033F800BF9F
:1011100000000000A011000070B50E4B0E4D002421
:10112000ED1AAD101E46AC4204D056F8242090476C
:101130000134F8E700F020F8084D094B0024ED1ABF
:10114000AD101E46AC4204D056F82420904701341E
:10115000F8E770BD200200202002002024020020B9
:101160002002002002440346934202D003F8011BF0
:10117000FAE77047FEE700BFF8B500BFF8BC08BC4F
:101180009E467047F8B500BFF8BC08BC9E46704745
:1011900001010A0000000000000000004300000000
:0811A000C00100200000000066
:0811A80068EFFF7F0100000069
:1011B0002A0000000E280000320000005A0D000036
:1011C0002A0000000E280000320000005A0D000026
:1011D000250000000E280000320000005A0D00001B
:1011E0002C0000006835000032000000B41A000036
:1011F0002A000000B41A0000250000006835000035
:10120000210000000E280000320000005A0D0000EE
:1012100021000000683500001F000000B41A000023
:10122000210000001C50000025000000B41A00003E
:101230002A00000068350000250000006835000025
:101240002A000000683500002C000000683500000E
:101250002A0000000E280000320000005A0D000095
:101260002A000000B41A000025000000B41A000093
:1012700021000000B41A00001F000000B41A000092
:101280001C0000000E280000320000005A0D000073
:101290001C0000000E280000320000005A0D000063
:1012A0001C0000000E280000320000005A0D000053
:1012B0001C0000001C5000001F000000B41A0000B9
:1012C00021000000683500001F0000000E2800000B
:1012D000320000005A0D00001F0000000E28000020
:1012E000320000005A0D00001F0000000E28000010
:1012F000320000005A0D00001F0000001C500000CA
:1013000021000000B41A000025000000683500002C
:1013100021000000683500001F000000B41A000022
:1013200021000000B41A000025000000B41A0000DB
:101330002A000000B41A0000210000001C50000028
:101340001F000000B41A00001C00000068350000F7
:1013500019000000B41A00001F000000B41A0000B9
:1013600021000000683500000048E801008000000E
:10137000000000000000000000000000000000006D
:10138000000000000000000000000000000000005D
:101390009C110000000000000000000000000000A0
:1013A000000000000000000000000000000000003D
:1013B000000000000000000000000000000000002D
:1013C000000000000000000000000000000000001D
:0C13D000E1000000BD0000000000000073
:0400000300000F6189
:00000001FF
